:020000040800F2
:10000000580D0020B5010008D50D0008CD0D0008E1
:10001000D10D000871020008E90D00080000000081
:10002000000000000000000000000000DD0D0008DE
:100030007502000800000000D90D0008E10D00085D
:10004000CF010008CF010008CF010008CF01000850
:10005000CF010008CF010008CF010008CF01000840
:10006000CF010008CF010008CF010008CF01000830
:10007000CF010008CF010008CF010008CF01000820
:10008000CF010008CF010008CF010008CF01000810
:10009000CF010008CF010008CF010008CF01000800
:1000A000CF010008CF010008CF010008CF010008F0
:1000B000CF010008CF01000800000000CF010008B8
:1000C000CF0100080000000000000000CF01000880
:1000D00000000000CF010008CF0100080000000070
:1000E000CF010008CF010008CF01000800F002F89E
:1000F00000F050F814A696E8000CB244B344DA4578
:1001000001D100F047F8BAE80F000FA696E83000DA
:10011000A5EB040504EB0607AAEB0704A7F101070A
:100120004FEA15154FEA3414A4F10104AC4201D38F
:1001300000F030F813F0010F18BFFB1A43F0010371
:1001400000F001F8DBE71847781A0000981A000061
:10015000103A24BF78C878C1FAD8520724BF30C8F3
:1001600030C144BF04680C60704700007047000055
:100170000023002400250026103A28BF78C1FBD8B0
:10018000520728BF30C148BF0B6070471FB51FBD65
:1001900010B510BD00F031F81146FFF7F7FF00F081
:1001A00049FE00F04FF803B4FFF7F2FF03BC00F084
:1001B00057F800000948804709480047FEE7FEE776
:1001C000FEE7FEE7FEE7FEE7FEE7FEE7FEE7FEE707
:1001D00004480549054A064B70470000E50D000834
:1001E000ED00000858070020580D00205809002095
:1001F00058090020704770477047754600F02CF88A
:10020000AE4605006946534620F00700854618B003
:1002100020B5FFF7DDFFBDE820404FF000064FF0AE
:1002200000074FF000084FF0000BAC46ACE8C009E7
:10023000ACE8C009ACE8C009ACE8C00921F007018E
:100240008D46704710B50446AFF300802046BDE8E8
:100250001040FFF7A8BF00000048704710000020C2
:1002600001491820ABBEFEE72600020070470000DF
:10027000FEE70000704700002DE9F04F82B00E68E5
:10028000002E00F0F58041F20002C4F201020323C7
:1002900040F2004E904208BF02234FF6FF7CC4F2AA
:1002A000010E009300240123C1F2100C4FF0000B4B
:1002B0004FF000094BE000BF40F60042C4F20102DB
:1002C000009F904208BF012704F00C030F229A40C0
:1002D0002AEA020207FA03F34FEA9B051A4346F89B
:1002E00025204E6840F20C45F202DEF8082054BF8B
:1002F00022EA080242EA0802C4F20105CEF8082008
:100300002A68B30254BF22EA080242EA08022A60BD
:10031000B303DEF8042054BF22EA080242EA0802CE
:10032000F303CEF80420DEF800204FF0010354BFA1
:1003300022EA080242EA0802CEF800200E680BF119
:10034000010B36FA0BF204F1040400F0918003FA79
:100350000BFA16EA0A08F1D04E68664512DC122E36
:1003600056D8DFE806F0350B4549555555555555D6
:10037000555555555555554D510000BFD1F80C9068
:1003800046E000BF4FF6FF72C1F2210296420FDC39
:100390000022C1F2110296421AD00022C1F21202CA
:1003A000964215D00022C1F22102964210D02FE0D1
:1003B0000022C1F2220296420AD00022C1F231028A
:1003C000964205D00022C1F23202964220D100BFEF
:1003D0008A684AB1012A14BFC0F814A0C0F810A05E
:1003E0004FF0080914E000BF4FF0040910E000BF0F
:1003F000CA6802F108090BE04FF0000908E000BFED
:10040000CA6802F1040903E0CA6802F10C0900BFDE
:1004100022460646B8F5807F24BF203A0436376866
:100420000F25954027EA050509FA02F22A433260B2
:10043000CA79D2067FF582AF41F21803C4F20203F3
:100440001A68AEF57E7642F001021A601A6802F070
:1004500001020192019A2BF0030256F802A040F625
:100460000002C4F2010290427FF426AF00272BE77E
:1004700002B0BDE8F08F0000002A08BF0904016146
:100480007047000040F25470C2F2000000687047EC
:1004900040F2000040F25471C2F20000C2F20001CA
:1004A00000780A68104408607047000080B542F286
:1004B0000000C4F20200016841F010010160032055
:1004C00000F07AF80F2000F005F800F027F800207F
:1004D00080BD000070B540F20006C2F2000640F296
:1004E00008013278C2F200014FF47A730968B3FB55
:1004F000F2F20446B1FBF2F1084600F077FB0F2C54
:100500004FF0010508D838B94FF0FF3021460022DE
:10051000002500F025F87460284670BD82B041F2D5
:100520001800C4F202000168022241F001010160DA
:10053000016801F0010101910199416841F0805188
:100540004160406800F08050009000980420C4F2A0
:100550000100016862F31A61016002B07047000097
:1005600010B54EF60C5CCEF2000CDCF80030C3F394
:10057000022E8EF00704042C28BF0424BEF10303CE
:100580004FF0FF3E0EFA04F438BF0023A143994018
:100590000EFA03F39A43114300F00F0200F1604397
:1005A0000901043A03F564436244002848BF02F19C
:1005B0000C03197010BD00004EF60C51CEF2000174
:1005C0000A684FF6FF031A4060F30A2242F0806087
:1005D00040F0FD7008607047002804BF012070479C
:1005E0002DE9F04381B042F20008C4F2020804464B
:1005F000D8F800000D4600F0070088420CD2D8F869
:10060000000020F007002843C8F80000D8F80000D8
:1006100000F00700A8426CD1206841F2040981076C
:10062000C4F2020917D5410705D5D9F8001041F4E5
:10063000E061C9F80010010705D5D9F8001041F4B0
:100640006051C9F80010D9F80010A26821F0F0013B
:100650001143C9F80010C00742D1D8F8000000F0DB
:100660000700A8420CD9D8F8000020F00700284362
:10067000C8F80000D8F8000000F00700A84238D100
:100680002068410707D5D9F80010E26821F4E0613D
:100690001143C9F80010000708D5D9F800002169F6
:1006A00020F4605040EAC100C9F80000D9F80020E9
:1006B00002F00C00082841F20020C0F27A0051D16B
:1006C00041F6AE33C2F38341C0F60003595CD20356
:1006D0003CD440F60010C0F23D00484342E000BF69
:1006E000606802280AD001282AD159F8041C89031D
:1006F00008D4012001B0BDE8F08300BF59F8041C04
:100700008901F6D5D9F8001021F003010843C9F892
:100710000000FFF7B7FE064641F28837D9F800001F
:10072000616800F00C00B0EB810F96D0FFF7AAFED5
:10073000801BB842F2D9032001B0BDE8F08300BFAE
:1007400059F8041C8907D4D5DCE700BFD9F800208C
:1007500041F6AC33C2F34042C0F600039A5C484312
:10076000B0FBF2F0D9F8001041F69432C1F3031156
:10077000C0F60002515C40F2080220FA01F140F29A
:100780000400C2F200000068C2F200021160FFF72C
:10079000A1FE002001B0BDE8F083000040F2080097
:1007A00041F20401C2F20000C4F2020100680968CB
:1007B00041F6A432C1F30221C0F60002515CC840E8
:1007C0007047000040F2080041F20401C2F200004C
:1007D000C4F202010068096841F6A432C1F3C221E3
:1007E000C0F60002515CC84070470000002804BFFA
:1007F000012070472DE9F04182B00446007841F2B3
:100800000006C007C4F202060CD0706800F00C00AD
:10081000042840F081803068800303D56068002898
:1008200000F04E81207880071BD5706810F00C0F07
:1008300009D0706800F00C00082840F08B807068C8
:10084000C00300F187803068800703D52069012844
:1008500040F036813068616920F0F80040EAC1005C
:1008600030602078000713D4207840072CD4E56945
:10087000002D00F02081706800F00C00082840F086
:10088000AF80012D40F00C81012002B0BDE8F08165
:10089000A069002800F08C800020C4F242200121D1
:1008A000C0F88014FFF7EEFD054600BF706A8007B0
:1008B00000F1BA80FFF7E6FD401B0228F6D90320BD
:1008C00002B0BDE8F08100BFF0695FEAC00808D45B
:1008D000F06940F08050F061F06900F080500090C5
:1008E000009847F20007C4F200073868C0054DD4ED
:1008F000386840F480703860FFF7C4FD054600BFDB
:100900003868C00542D4FFF7BDFD401B6428F7D905
:10091000032002B0BDE8F081706800F00C000828E8
:1009200003D17068C0033FF576AF6068002800F01F
:100930000981B0F5A02F00F01D81B0F5803F00F0D7
:100940001D81306820F480303060306820F48020D1
:1009500017E100BF2069002840F20000C4F24220E5
:1009600000F08C8001210160FFF78CFD054600BF7F
:10097000306880073FF56EAFFFF784FD401B02280B
:10098000F6D9032002B0BDE8F08100BFE06800287E
:1009900000F09A80052800F0B180012800F0B280B4
:1009A000306A20F001003062306A20F00400ACE0D0
:1009B0000020C4F242200021C0F88014FFF762FD3D
:1009C000054600BF706A80077FF54EAFFFF75AFDFE
:1009D000401B0228F6D9032002B0BDE8F08100BF19
:1009E0000027C4F2422700203866FFF74BFD022D96
:1009F00005460DD13068800140F1D680FFF742FDF9
:100A0000401B02284FF00300F4D902B0BDE8F0818A
:100A1000306880014FD5FFF735FD401B02284FF0AD
:100A20000300F5D9F1E700BF40F20800C2F2000070
:100A3000006844F6D351C1F26201A0FB0101480AEB
:100A4000019000BF00BF0198411E002801913FF4B2
:100A50000BAF00BF0198411E002801913FF404AF85
:100A600000BF0198411E002801913FF4FDAE00BF78
:100A70000198411E00280191E4D1F5E600210160B2
:100A8000FFF700FD054600BF306880077FF5E9AE3F
:100A9000FFF7F8FC401B02284FF00300F4D9B4E73D
:100AA0007068216A00F480328A4209D1616A00F4D8
:100AB0007010884204D1002002B0BDE8F08100BF70
:100AC000012002B0BDE8F081306A20F00100306200
:100AD000306A20F004003062FFF7D4FC054641F292
:100AE000883700BF306A800722D5FFF7CBFC401B58
:100AF000B8424FF00300F5D987E700BF306A40F0F5
:100B000004003062306A40F001003062FFF7BAFC46
:100B1000054641F2883700BF306A800708D4FFF7E6
:100B2000B1FC401BB842F7D9032002B0BDE8F08108
:100B3000B8F1000F3FF59BAEF06920F08050F061F6
:100B400095E600BF306820F480303060306820F4D3
:100B500080203060FFF796FC054600BF30688003B8
:100B60007FF560AEFFF78EFC401B64284FF003005A
:100B7000F4D94AE7306840F480203060306840F4AF
:100B800080303060FFF77EFC054600BF3068800390
:100B90003FF548AEFFF776FC401B6428F6D90320EA
:100BA00002B0BDE8F08100BF206AB0F5803F05D1FA
:100BB0007168A26821F40031114371607168626A42
:100BC00021F4741111430843706001203866FFF767
:100BD00059FC0446306880013FF56DAFFFF752FCC9
:100BE000001B02284FF00300F4D90EE7411E00203D
:100BF000B0EB116F1CBF012070474EF21002CEF215
:100C0000000251604EF62351CEF20001F0230B702A
:100C10000721906011607047002804BF01207047D1
:100C200010B5044690F8410028B9002084F840002F
:100C3000204600F063F8242084F841002068D4E9BD
:100C40000212C36823F40053C360036923F44053C2
:100C50001A430261D4E904231143C268194341F2E3
:100C60000C639A431143C1604169A26921F4407148
:100C7000114343F60002C4F201029042416103D0E5
:100C8000FFF78CFD02E000BFFFF79CFDD4E90023D5
:100C9000192148439900B0FBF1F048F21F5CC5F2FE
:100CA000EB1CA0FB0C314FF69C734909C0F6FF7397
:100CB00001FB0300322303EB0010A0FB0C03F02028
:100CC00000EA531000EB0110C3F343110844906095
:100CD0001069202120F490401061506920F02A0012
:100CE0005061D06840F40050D0600020606484F807
:100CF000411084F84210606310BD000070B586B0EA
:100D000040F60004C4F20104006804F540510026D6
:100D10008842049602D006B070BD00BF41F21800B0
:100D2000C4F20200016802AD41F480410160016833
:100D300001F4804101910199016841F004010160D1
:100D40000068294600F00400019001984FF40070FB
:100D5000029002200390032005902046FFF78CFAB2
:100D60004FF48060CDE90206204629460496FFF73D
:100D700083FA06B070BD000090F84230202B07D1F6
:100D800000294FF0010318BF002A05D1184670470B
:100D900002231846704700BF0023036381622221AB
:100DA0008285C285436480F842100169006819B1E8
:100DB000C16841F48071C160416941F00101416144
:100DC000C16841F02001C16018467047FEE700008D
:100DD000FEE70000FEE700007047000070470000DB
:100DE000FFF756BB70470000FEE7000080B582B0F9
:100DF00000F0B0FE18B100F0BFFE8DF8070040F221
:100E00003C10C2F200000DF10701012200F02EF9A2
:100E100002B080BD10B540F23C10C2F200000021CB
:100E2000002400F00BF940F24430C2F200000470DC
:100E300010BD000090B0FFF739FB00240120CDE980
:100E40000B44CDE909440A9010200B904FF4601038
:100E500002250F9006A8CDE907440695CDE90D546B
:100E6000FFF7C4FC20B1EFF3108072B6FEE700BFBD
:100E70000F20CDE901054FF48060CDE9040401A8FD
:100E800002210394FFF7A8FB20B1EFF3108072B6A4
:100E9000FEE700BF41F21800C4F20200016841F20F
:100EA000000441F0100101600168C4F2010401F086
:100EB0001001069106990168002241F004010160C9
:100EC00000684FF4005100F0040006900698204698
:100ED0004FF400550026FFF7CFFA0120CDE90706B1
:100EE0000220099006A920460695FFF7C5F904F5EA
:100EF000205140F27004C2F20004204640F8041F62
:100F00004FF4E1310C22C0E90116C0E90366C0E9E3
:100F10000526C661FFF780FE20B1EFF3108072B6A0
:100F2000FEE700BF00F01CFE201D21460122FFF756
:100F300023FFFFF76FFF00BFFFF758FFFCE700003C
:100F400010B584B040F24434C2F200042078032883
:100F500009D80FF20602DFE800F00309213300BFD1
:100F6000087800283ED004B010BD00BF08780128E2
:100F7000F9D140F20310ADF8040000208DF806000E
:100F800040F23C10C2F2000001AA0121032300F04C
:100F900061FC0220207004B010BD00BF0878022858
:100FA000E1D140F20310ADF8070000208DF80900F0
:100FB00040F23C10C2F200000DF1070238E000BF21
:100FC000087818B30228CED140F20310ADF80A0019
:100FD00000208DF80C0040F23C10C2F200000DF130
:100FE0000A0225E088780028BDD10120207040F257
:100FF0000310ADF8010000208DF8030040F23C1012
:10100000C2F200000DF1010212E000BF8878012851
:10101000A9D10420207040F20310ADF80D0000208B
:101020008DF80F0040F23C10C2F200000DF10D02ED
:101030000121032300F00EFC04B010BD80F8001263
:1010400040F24031C2F2000109680022A0F8F82104
:10105000C0E9382280F8E820C0E93011C0E9322226
:10106000C0E93422C0E93622704700002DE9F04F74
:101070008BB00446002A00F0B98204F1EC0048F27B
:10108000203544F2901E079004F1E40092468B460E
:10109000CEF6B855C7F2DC6E089004F1E8000026E1
:1010A0004FF00009069006E084F8F90109F1010902
:1010B000D14500F09B8294F8F8211BF80910022A10
:1010C00008D1552984F8F861F0D0AA2914BF00206E
:1010D0000120E9E794F8F931AA294FF000074FF011
:1010E000000008BF571C092B84F8F871DCD8DFE832
:1010F00013F0170019005B009500D5001D012301B6
:101100002B010B00330100BFD4E97B020843D1431C
:10111000C4F8EC0188424FF0000008BF0920C3E783
:10112000C4E700BF4FFA81FC84F8FB11C94385EA8C
:101130005102CB0784F8FA6108BF4A088F074CF2C6
:10114000194085EA52034FEA4177C0F26D7058BFEB
:10115000530800EAE777080748F63200C0F6DB607C
:1011600048BF4740C80641F26400C1F6B75048BFC7
:101170004740880642F2C800C3F66E3048BF474079
:1011800087EA9310910648BF80EA0E00990648BF8F
:101190006840BCF1000FC4F8F0014EBF022084F893
:1011A000FC61032080E700BFD4F8F00184F8FC1153
:1011B000484085EA5001C20708BF410883074CF246
:1011C000194785EA51024FEA4073C0F26D7758BF64
:1011D0004A0807EAE373070748F63207C0F6DB67F9
:1011E00048BF7B40C70641F26407C1F6B75748BF06
:1011F0007B40800642F2C800C3F66E3048BF4340D1
:1012000083EA9210890648BF80EA0E00910648BF23
:101210006840C4F8F001032046E700BFD4F8F001AD
:1012200084F8FD11484085EA5002C30784F8FE1196
:1012300008BF420887074CF2194685EA52034FEA75
:101240004077C0F26D7658BF530806EAE777060785
:1012500048F63206C0F6DB6648BF7740C60641F264
:101260006406C1F6B75648BF7740800642F2C80010
:10127000C3F66E3048BF474087EA9310920648BFD6
:1012800080EA0E009A0648BF6840C4F8F0010420C6
:101290000026002908BF052006E700BF94F8FA01E0
:1012A0004CF21947421C84F8FA21D4F8F02120446A
:1012B00080F8EC1082EA010085EA5001C20708BFFD
:1012C0004108830785EA51024FEA4073C0F26D7707
:1012D00058BF4A0807EAE373070748F63207C0F623
:1012E000DB6748BF7B40C70641F26407C1F6B757CA
:1012F00048BF7B40800642F2C800C3F66E3048BF4C
:10130000434083EA9210890648BF80EA0E009106A6
:1013100048BF684094F8FD11C4F8F001481E01066A
:1013200084F8FD017FF4C2AE0520BDE60806C4F8CE
:10133000EC010620B8E600BFD4F8EC0140EA014019
:10134000C4F8EC010720AFE6D4F8EC0140EA012034
:10135000C4F8EC010820A7E6552940F0088140F2C6
:10136000403194F8FB21C2F2000194F8FC0194F89A
:10137000FE710968FE2AC4F8C41013D0FF2A25D1D3
:1013800094F8E68094F8E730A0EB0801A3EB08039B
:10139000CFB2DBB29F422BD9D4F8D0000130C4F8D1
:1013A000D000E4E0D4F8D800089A0130C4F8D8009E
:1013B000002084F8E200A4F8DC00A4F8E00010604B
:1013C0001071C4E93011C4F8C8006DE64FFA82F814
:1013D0000026B8F1FF3F67DD94F80032079908F066
:1013E0003F003A467646FFF7ABFDB64600208AE05E
:1013F00094F8ECC094F8E470404584F8E60000F0FE
:10140000B4806FEA0806064494F8E220B4F8DC30B1
:10141000F6B2032ECDE9092CCDE9040130D301F059
:10142000FC0C4FF0000E0846791CFEB201F00F01D3
:1014300006EB460601EB410104EB860604EB810155
:10144000B6798979BA1C02F00F023144FE1C02EB16
:10145000420206F00F0604EB820206EB4606927982
:1014600004EB8606B67911443A1D0EF1040E02F023
:101470000F0731445FFA8EF26245A3EB0103D3D12B
:101480000598002610F0030104985ED07A1C02F043
:101490000F0E07EB470204EB820292790129A3EBBE
:1014A00002033BD1774650E094F8E820C4F8C81016
:1014B00090422BD1411C94F8000284F8E81000F00F
:1014C00003FA0B2812D394F8E820FF20069B00961D
:1014D00001902046FF210126029600F0FBF940F220
:1014E0004030C2F200000068C4F8C00094F8003236
:1014F000079908F03F003A46FFF722FD44F2901E9C
:101500000020C7F2DC6E0026CEE500BFD4F8D40080
:101510000130C4F8D4000020C6E500BFBA1C02F0B8
:101520000F0C0EEB4E0204EB820292790229A3EB20
:10153000020301D1674608E00CEB4C0204EB820287
:101540009279F91C01F00F079B1A099AA8EB000188
:1015500044F2901EDDF828C01144C7F2DC6E84F816
:10156000E47084F8E210A4F8DC30844502D1002055
:101570009AE500BFACEB00004FF00008099000BFF7
:10158000F8B200EB400604EB86008179C379027A59
:101590008088029143F0800140F245330A97009021
:1015A0002046C2F2000340F2FF3701975746DA4661
:1015B000F34600F08FF940F24030C2F200000068BC
:1015C000099944F826000A9808F101080130DE461E
:1015D000D346BA4600F00F075FFA88F0C9B200267A
:1015E00088424FF00000CBD35EE500BF00F052F917
:1015F00094F8E72094F8E6608346931BD4E9310819
:10160000D9B240F240370F29C2F20007C7F800B044
:101610003AD894F8E2708F4236D994F8E40018442E
:1016200000F00F0000EB400904EB8906374617F87D
:10163000061F94F8000201F10B0A00F045F98245FB
:1016400000F2DC8094F8E720B188F07940F2FF33B3
:101650003F783272CDE9001340F2453340F080010B
:10166000C2F200032046029700F034F940F2403005
:10167000C2F20000006894F8E71044F82900481C02
:1016800084F8E700BAE000BFB24200F0B780ABEBED
:101690000000C0087C2800F2B18094F8E410F64302
:1016A00001EB410054F820C03244D2B204EB800771
:1016B000ABEB0C00032A03F0030C46D303F0FC0E43
:1016C000002600BFCAB202EB420254F822300436B0
:1016D000ABEB0303834288BF04EB820701F10102F5
:1016E00002F00F0202EB420254F8225088BF184663
:1016F000ABEB0503834288BF04EB820701F10202D2
:1017000002F00F0202EB420254F8225088BF184642
:10171000ABEB0503834288BF04EB820701F10302B0
:1017200002F00F0202EB420254F8225088BF184622
:10173000ABEB0503834284BF04EB820718460431F8
:10174000F2B2724501F00F01BCD1BCF1000F2FD0F5
:1017500001EB410254F82230ABEB0303834288BF14
:1017600004EB8207BCF1010F22D04A1C02F00F02E9
:1017700002EB420254F82260834288BF1846ABEB6A
:101780000603834288BF04EB8207BCF1020F0FD02F
:10179000023101F00F0101EB410154F82120834295
:1017A000ABEB020288BF1846824288BF04EB810778
:1017B0003868ABEB0000322820D3B97994F80002E6
:1017C00001F10B0500F080F8854217D8B988F87947
:1017D00040F2FF33BE793A7ACDE9001340F2453347
:1017E00040F08001C2F200032046029600F072F839
:1017F00040F24030C2F200000068386040F24030F1
:10180000C2F200000068D4F8C010401A1A281ED393
:10181000ABEB0800C0087C2819D894F8000200F04F
:1018200053F80B2813D3234613F8E82FFF20002189
:101830000127CDE900102046FF21029700F04AF869
:1018400040F24030C2F200000068C4F8C0000BB0A3
:10185000BDE8F08F2DE9F04184B0064690F8000213
:101860001C4690460F4603F10B0500F02DF885420B
:101870000CD84FF6FF700021CDE9001007F03F01B2
:10188000304600224346029400F024F804B0BDE83C
:10189000F0810000FEF7F6BD43F60000C4F201003F
:1018A000416003E00168490648BF70470168490686
:1018B00006D4016849065CBF01685FEA4161F1D561
:1018C00070470000704700004FF400707047000040
:1018D000704700002DE9F04F81B0044602200C9EB5
:1018E000DDE90A5784F8FF014FF0FF30C4F8F40136
:1018F00094F800029A46904689464FFA81FBFFF71A
:10190000E7FF94F80002AA21FFF7C6FF94F800024F
:10191000AA21FFF7C1FF94F80002AA21FFF7BCFF3C
:1019200020464946012200F0B1F8BBF1FF3F04DC3C
:1019300020464146012200F0A9F820463146012206
:1019400000F0A4F86EB100BFA8B21AF8001020464B
:10195000012200F09BF8681C013E310600EA0705F1
:10196000F2D1D4F8F401C64394F80002350E2946AA
:10197000FFF792FFAA2D0BD194F8FF010138010661
:1019800084F8FF0107D194F800025521FFF784FF86
:10199000022084F8FF0194F80002C6F307452946A7
:1019A000FFF77AFFAA2D0BD194F8FF010138010649
:1019B00084F8FF0107D194F800025521FFF76CFF6E
:1019C000022084F8FF0194F80002C6F30725294697
:1019D000FFF762FFAA2D0BD194F8FF010138010631
:1019E00084F8FF0107D194F800025521FFF754FF56
:1019F000022084F8FF0194F80002F5B22946FFF7AF
:101A00004BFFAA2D0BD194F8FF010138010684F891
:101A1000FF0107D194F800025521FFF73DFF022096
:101A200084F8FF0194F800025521FFF735FF94F880
:101A3000000201B0BDE8F04FFFF744BF8188C088C5
:101A4000081A18BF012070470023C0E90013028163
:101A5000704700008288C3889A4204BFFF20704705
:101A600080B503F1010EB0F808C01FFA8EF262458E
:101A700002684FF0000CD25C28BFE6460A70A0F85E
:101A800006E0BDE8804060467047000070B504463F
:101A900090F8000216460D46FFF7FEFE36B9AA2D55
:101AA00046D0022084F8FF0170BD00BFD4F8F401D5
:101AB00048F2203C80EA0501CEF6B85C8CEA51027F
:101AC000CB0708BF4A088E074CF219408CEA520334
:101AD0004FEA4176C0F26D7048F6320E58BF530897
:101AE00000EAE670C0F6DB6E0E0748BF80EA0E0023
:101AF00041F2640ECE06C1F6B75E48BF80EA0E0022
:101B000042F2C806C3F66E36890648BF704080EAC6
:101B1000931044F29011C7F2DC61920648BF48402E
:101B2000990648BF80EA0C00C4F8F401AA2DB8D188
:101B300094F8FF010138010684F8FF0118BF70BD59
:101B400094F800025521FFF7A7FE022084F8FF0158
:101B500070BD000040F24870C2F20000FFF76EBF97
:101B600040F2487040F2BC01C2F20000C2F2000133
:101B70008022FFF769BF000080B582B040F2487054
:101B8000C2F200000DF10701FFF764FF9DF80700A6
:101B900002B080BD0000000000000000010203044C
:101BA0000607080900000000010203040102020305
:101BB0000405060708090A0B0C0D0E0F1010000093
:101BC000E01B000800000020100000005001000889
:101BD000F01B000810000020480D000070010008F4
:101BE000010000001000000000127A000000000058
:04000005080000ED02
:00000001FF
